:020000040800F2
:100000000050002045080008A1080008A1080008C9
:1000100000000000000000000000000000000000E0
:10002000000000000000000000000000A10800081F
:100030000000000000000000A1080008A10800085E
:10004000A1080008A1080008A1080008A1080008EC
:10005000A1080008A10800089D030008AB030008E0
:10006000B9030008C7030008D5030008A108000869
:10007000A1080008A1080008A1080008A1080008BC
:10008000A1080008A1080008A1080008A1080008AC
:10009000A1080008A1080008A1080008E50300085D
:1000A000A1080008A1080008A1080008A10800088C
:1000B000A1080008A1080008A1080008A10800087C
:1000C000A1080008A1080008A1080008A10800086C
:1000D000A1080008A1080008A1080008A10800085C
:0C00E00025040008A1080008A108000881
:1000EC0080B483B000AF0346FB71FB791B09DBB214
:1000FC0018460C37BD4680BC704780B483B000AF47
:10010C000346FB71FB7903F00F03DBB218460C3787
:10011C00BD4680BC7047000080B582B000AF03467E
:10012C00FB71FB791846FFF7DBFF03461A46034BBE
:10013C0053F8223018460837BD4680BDA808000881
:10014C0080B483B000AF0346FB71074B1A68FB7990
:10015C000233012101FA03F3034913430B6000BF7F
:10016C000C37BD4680BC70471810024080B588B073
:10017C0000AF03460A46FB711346BB71FB79184668
:10018C00FFF7AEFF0346FB76FB791846FFF7B5FF8A
:10019C000346BB76FB791846FFF7BEFF7861FB7E02
:1001AC001846FFF7CDFFBB7E03F007039B003B61B6
:1001BC000F223B6902FA03F3FB60BB7E072B02D9CB
:1001CC007B69043300E07B69BB60BB79042B1CD8D2
:1001DC0001A252F823F000BF05020008F901000843
:1001EC000B02000811020008FF0100080223FB614A
:1001FC000EE00623FB610BE00423FB6108E00823FF
:10020C00FB6105E00823FB6102E00423FB6100BFF6
:10021C00BB681A68FB68DB431A40FB6903F00F01EB
:10022C003B6901FA03F31A43BB681A60BB79022BD2
:10023C0008D1BB7E7A6910321146012202FA03F30F
:10024C000B600BE0BB79032B08D1BB7E10337A69B2
:10025C0010321146012202FA03F30B6000BF203763
:10026C00BD4680BD80B584B000AF03460A46FB7125
:10027C001346BB71FB791846FFF74EFFF860FB790C
:10028C001846FFF73AFF0346FB72BB79002B01D0EF
:10029C00012201E04FF48032FB7AF968103102FA46
:1002AC0003F30B6000BF1037BD4680BD80B400AFB8
:1002BC000C4B1B68002B10D10B4B00221A600B4B04
:1002CC0041F63F721A600A4B00221A60064B052257
:1002DC001A60044B01221A6000E000BFBD4680BCCE
:1002EC00704700BF2800002010E000E014E000E0A0
:1002FC0018E000E080B400AF074B1B6803F48033B8
:10030C00002B04D0054B1B680133044A136000BF5B
:10031C00BD4680BC704700BF10E000E02400002008
:10032C0080B584B000AF7860FFF7C0FF084B1B6846
:10033C00FB6001E0FFF7DEFF054B1A68FB68D31A80
:10034C007A689A42F6D800BF00BF1037BD4680BD10
:10035C002400002080B582B000AF0346FB71FB790E
:10036C00094A012101FA03F31360FB79074A52F899
:10037C002330002B04D0FB79044A52F823309847E1
:10038C0000BF0837BD4680BD140401402C0000207E
:10039C0080B500AF0020FFF7DDFF00BF80BD80B54A
:1003AC0000AF0120FFF7D6FF00BF80BD80B500AFC6
:1003BC000220FFF7CFFF00BF80BD80B500AF032048
:1003CC00FFF7C8FF00BF80BD80B500AF0420FFF76A
:1003DC00C1FF00BF80BD000080B582B000AF052317
:1003EC00FB710FE00B4B1A68FB79012101FA03F347
:1003FC001340002B03D0FB791846FFF7ABFFFB79BA
:10040C000133FB71FB79092BECD900BF00BF083716
:10041C00BD4680BD1404014080B582B000AF0A23F4
:10042C00FB710FE00B4B1A68FB79012101FA03F306
:10043C001340002B03D0FB791846FFF78BFFFB7999
:10044C000133FB71FB790F2BECD900BF00BF0837D0
:10045C00BD4680BD1404014080B483B000AF786009
:10046C0039607B681B4A93420CD11B4B1B681A4AA0
:10047C0043F480431360184B1B68174A43F0040382
:10048C0013600FE07B68154A93420BD1144B1B6829
:10049C00134A43F4003313600F4B1B680E4A43F0AE
:1004AC00040313603B68002B04D00E4A3B68B2FB7C
:1004BC00F3F301E04FF402737A68083213607B683F
:1004CC000C331A4642F20C03136000BF0C37BD46C6
:1004DC0080BC7047003801401810024000440040B6
:1004EC001C10024000127A0080B483B000AF786018
:1004FC000B46FB7000BF7B681B6803F08003002B6E
:10050C00F9D07B6804331A46FB78136000BF0C37B4
:10051C00BD4680BC704780B483B000AF78607B6808
:10052C001B6803F02003002B14BF01230023DBB254
:10053C0018460C37BD4680BC704780B483B000AF02
:10054C0078607B681B6803F02003002B02D14FF00E
:10055C00FF3303E07B6804331B68DBB218460C37AF
:10056C00BD4680BC704780B582B000AF7860396002
:10057C003B68002B0DD007E03B685A1C3A601B7897
:10058C0019467868FFF7B0FF3B681B78002BF3D156
:10059C0000E000BF0837BD4680BD80B582B000AF1B
:1005AC007860396039687868FFF7DDFF0D2178686D
:1005BC00FFF79AFF0A217868FFF796FF00BF08370C
:1005CC00BD4680BD80B48BB000AF7860396000232D
:1005DC007B627B68DB0FDBB2BB61BB69002B02D09B
:1005EC007B685B4200E07B683B623B6A002B22D15C
:1005FC007B6A5A1C7A6228333B44302203F81C2C49
:10060C0019E0396A224BA3FB0123DA0813469B003D
:10061C0013445B00CA1AD2B27B6A591C796230321D
:10062C00D2B228333B4403F81C2C3B6A184AA2FB79
:10063C000323DB083B623B6A002BE2D10023FB6106
:10064C00BB69002B14D0FB695A1CFA611A463B6833
:10065C0013442D221A700BE0FB695A1CFA611A46DE
:10066C003B68134407F10C017A6A0A4412781A7039
:10067C007B6A5A1E7A62002BEED1FB693A681344EE
:10068C0000221A7000BF2C37BD4680BC704700BFDB
:10069C00CDCCCCCC80B586B000AF7860396007F19A
:1006AC000C0319463868FFF78DFF07F10C03194648
:1006BC007868FFF758FF00BF1837BD4680BD80B57E
:1006CC0082B000AF7860396039687868FFF7E2FF74
:1006DC000D217868FFF708FF0A217868FFF704FFFF
:1006EC0000BF0837BD4680BD80B582B000AF7860D2
:1006FC0079680348FFF7B0FE00BF0837BD4680BDE0
:10070C000038014080B400AF034B00221A6000BFD8
:10071C00BD4680BC704700BF0C38014080B500AFAF
:10072C000248FFF7F8FE0346184680BD003801402A
:10073C0080B500AF0248FFF700FF0346184680BDA6
:10074C000038014080B582B000AF0346FB71FB79E5
:10075C0019460348FFF7C8FE00BF0837BD4680BDE9
:10076C000038014080B582B000AF786079680348EA
:10077C00FFF7F9FE00BF0837BD4680BD00380140C9
:10078C0080B582B000AF786079680348FFF705FF49
:10079C0000BF0837BD4680BD0038014080B582B02F
:1007AC0000AF786079680348FFF774FF00BF083723
:1007BC00BD4680BD0038014080B582B000AF786086
:1007CC0079680348FFF77BFF00BF0837BD4680BD43
:1007DC000038014080B500AF01212D20FFF7C6FC89
:1007EC00114B1B684FF4E13098470F4B9B690F4836
:1007FC00984701212D20FFF735FD0B4B9B690C48C9
:10080C0098474FF47A70FFF78BFD00212D20FFF7EE
:10081C0029FD054B9B69074898474FF47A70FFF701
:10082C007FFD00BFE5E700BF00000020B80800080E
:10083C00C8080008CC08000880B582B000AF104B87
:10084C007B60104B3B6007E07A68131D7B603B6854
:10085C00191D396012681A603B680B4A9342F3D336
:10086C000A4B3B6004E03B681A1D3A6000221A6098
:10087C003B68074A9342F6D3FFF7ACFF00BFFDE796
:10088C00CF080008000000202400002024000020D5
:10089C006C00002080B400AF00BFFDE700080140F1
:1008AC00000C01400010014000140140426C7565C1
:1008BC0050696C6C20726561647900004F4646008B
:0308CC004F4E008C
:1008CF00F506000811070008290700083D07000872
:1008DF0051070008710700088D070008A9070008D5
:0408EF00C507000831
:0400000508000845A2
:00000001FF
